:100000004FC169C168C167C166C165C164C163C1CF
:1000100062C161C160C15FC15EC15DC1E0C15BC160
:100020005AC159C187C357C156C155C154C153C1E3
:1000300052C151C1535953543A4552523F005A2D5F
:1000400053696D756C61746F7220426961732053DE
:100050006F757263652056312E312C20732E6E2EF3
:100060002032303230303231340A002A49444E3F97
:10007000002A525354002B310A002A4F50433F00AC
:10008000204F6E6C79204C4F2F4849206F72204CC6
:100090004F572F4849474820737570706F727465C9
:1000A000642E0048490048494748004C4F57004CCF
:1000B0004F0046414E00204D6178696D756D20738B
:1000C0007570706F72746564206C6576656C2069FC
:1000D0007320353030306D562E00424941533A502E
:1000E00057523A564F4C5400204D6178696D756DEA
:1000F00020737570706F72746564206C6576656CC2
:1001000020697320353030306D562E0042494153FE
:100110003A504F543A564F4C5400204D6178696D17
:10012000756D20737570706F72746564206C657680
:10013000656C20697320353030306D562E00424991
:1001400041533A564F4C5400204F6E6C79204F4E1D
:100150002F4F4646206F7220312F302073757070FC
:100160006F727465642E0030004F46460031004FB8
:100170004E00504F5745523A535441544500204F7A
:100180006E6C79204F4E2F4F4646206F7220312FD4
:100190003020737570706F727465642E0030004F7C
:1001A00046460031004F4E00434F4D4D4F4E3A539F
:1001B0005441544500204F6E6C792072616E676522
:1001C00073203120616E64203220737570706F72FD
:1001D0007465642E0052414E474500204F6E6C7985
:1001E00020494E44206F7220434150207375707037
:1001F0006F727465642E0043415000494E44004DB7
:100200004F4445005556595A6566696A9596999ABC
:10021000A5A6A9AA0A00302C204E6F206572726F25
:10022000722E002D3235382C20454550524F4D202E
:1002300077726974652070726F7465637465642E7B
:10024000002D3130392C204D697373696E67207031
:100250006172616D65746572732E002D3130342CBE
:100260002057726F6E6720706172616D6574657280
:100270002074797065206F722076616C75652E0030
:100280002D3131332C20556E646566696E656420AE
:10029000636F6D6D616E64206865616465722E00C8
:1002A00011241FBECFEFD4E0DEBFCDBF11E0A0E030
:1002B000B1E0E0EFFFE002C005900D92AC30B10775
:1002C000D9F721E0ACE0B1E001C01D92A53AB20738
:1002D000E1F726D38BC694CE20912201962F9095DC
:1002E00092236823692B60686093220108952A98FD
:1002F0008EBD0DB407FEFDCF2A9A0895229A259A45
:10030000239A80E58CBD8DB581608DBD2A9A80E0F1
:10031000EECF8F70E82FF0E0EC5FFD4F8491E7CFD8
:10032000FC018091220187FDFCCF818190E0811149
:1003300001C092E08281238140E0211101C044E0AC
:10034000248158E0259F90011124842B822B892B36
:10035000806880932201662321F08091220187FD2D
:10036000FCCF089580911D01811120C08091220150
:1003700087FF0CC080911C0187FD08C0809122017D
:1003800080931C0194E090931D01C3CF80911C01C8
:1003900087FF0FC080911C018F7780931C01809193
:1003A00022018F778093220180E0A1CF815080933A
:1003B0001D0108959C018FB7F89430930F0120938D
:1003C0000E018FBF08958FB7F89420910E013091E0
:1003D0000F018FBF81E0232B09F080E008951F9269
:1003E0000F920FB60F9211242F933F934F935F9369
:1003F0006F937F938F939F93AF93BF93EF93FF93ED
:1004000080911B0181112EC03A98539839985498C5
:100410003898429A5B9A419A5C9A409A5D9A5F98A2
:1004200080911B018F5F893008F0A9C080931B0168
:1004300099DF809119018F5F823008F0B5C08093F9
:100440001901FF91EF91BF91AF919F918F917F9192
:100450006F915F914F913F912F910F900FBE0F9031
:100460001F901895813001F580910D01329B12C0CB
:1004700081604B9B11C08260319B10C084604C9B9B
:100480000FC08860309B0EC0806180930D015F9A21
:100490005E98C6CF8E7FEDCF8D7FEECF8B7FEFCF77
:1004A000877FF0CF8F7EF1CF873009F03FC08091FA
:1004B0000D01329B1FC080624B9B1EC08064319B2C
:1004C0001DC0806880930D015E9A3A9A539A399ABA
:1004D000549A389A5C9841985B98429880911001A0
:1004E00081110EC05C9A8091120181111DC0409A49
:1004F0002E9896CF8F7DE0CF8F7BE1CF8F77E2CFA5
:1005000080911001813011F4419AEDCF809110015A
:10051000823011F45B9AE7CF80911001833011F49F
:10052000429AE1CF5C9AFCCF4098E2CF883009F044
:1005300077CF2E9A8091120180FF17C0429A809146
:100540001101811114C05B9A8091110180FF11C0CB
:10055000419A8091130180FF0EC05C9A8091140132
:1005600080FF0BC0409A5D985BCF4298E8CF5B98C4
:10057000EBCF4198EECF5C98F1CF4098F4CF10923A
:100580001B0190910D0180910D0120910C01309182
:100590001A01932780958923822B80930C018091E7
:1005A0000D0180931A0144CF1092190180910E0120
:1005B00090910F01892B09F444CF80910E01909105
:1005C0000F01019790930F0180930E013ACF00978E
:1005D00049F0F0DE8091BC0087FD03C0F4DE882383
:1005E000C9F3F1CE8091BC0087FFFCCF80E0089575
:1005F000CF92DF92EF92FF920F931F93CF93DF93EF
:10060000C82FC62EF72EE42ED22FD32E84EA809345
:10061000BC00822F932FDBDF882371F084E9809365
:10062000BC00C1E08C2FDF91CF911F910F91FF9003
:10063000EF90DF90CF9008958091B900887F883047
:1006400069F7CC0FC093BB0084E88093BC008D2F6A
:100650009D2DBDDFC82F882329F084E98093BC003D
:10066000C2E0E0CF8091B900887F8831B1F70C2DCE
:100670001F2DE00EF12EF11C84E8C82EE016F106C5
:1006800021F484E98093BC00CDCFF80181918F01E2
:100690008093BB00C092BC008D2F9D2D98DF8823D6
:1006A00029F084E98093BC00C3E0BCCF8091B900FD
:1006B000887F883219F3F5CFCF93DF9300D00F9264
:1006C000CDB7DEB7209100013091010140910201C8
:1006D00029833A834B8390E6998328EB3BE043E000
:1006E000BE016F5F7F4F84DF0F900F900F90DF91FF
:1006F000CF910895CF93DF9300D00F92CDB7DEB79F
:100700009B0190E39983AB0194E0569547959A95A8
:10071000E1F74A832295207F2B8328EB3BE043E0DF
:10072000BE016F5F7F4F64DF0F900F900F90DF91DE
:10073000CF9108951F921FB61F9211248F939F93FC
:10074000EF93FF93E09124018E2FEF37B0F4909157
:10075000C60081E08E0FF0E0EB5DFE4F9083E82F46
:10076000F0E0EB5DFE4F1082992311F09A3029F4EE
:100770009091230191609093230180932401FF9134
:10078000EF919F918F911F901FBE1F90189582E04F
:100790008093C00088E98093C10086E08093C20006
:1007A0008CE090E09093C5008093C40010922501E6
:1007B000109224011092230108951F93CF93DF9389
:1007C000EC0180912301182F117080FF1AC0E09175
:1007D0002401F0E0EB5DFE4F108260E270E085E204
:1007E00091E0D2D3FC01892BC1F419821882E5E291
:1007F000F1E0DF0181918B3349F41C9285E291E0B5
:10080000CED3812FDF91CF911F9108958A30A9F324
:100810008D3099F38111EDCFF0CF1192DF018191ED
:100820008032E1F3B983A883FD018D918B3329F4E4
:10083000108288819981B3D3E1CF8A30C9F38D309A
:10084000B9F38111F1CFF4CF1092240180912301EB
:100850008E7F8093230108959091C00095FFFCCF77
:100860008093C6000895CF93DF93EC01FE0184913D
:100870002196811103C0DF91CF910895EDDFF6CF6E
:10088000CF93DF93EC018991811103C0DF91CF9168
:100890000895E2DFCE01F6CF40FF08C0809320012B
:1008A0009093210160931E0170931F0141FF20C0AE
:1008B00080912001909121018F382FEF920719F13B
:1008C000C0F4009751F18E3F9E4F21F180911E019F
:1008D00090911F01009709F0C6DF84E192E0C3DF29
:1008E000109221011092200110921F0110921E01FE
:1008F000089583392FEF920751F088399F4F31F7D0
:100900008BE592E002C080E892E0ADDFDFCF81E4CA
:1009100092E0FBCF83E292E0F8CF86E192E0F5CF60
:10092000CDB7DEB760970FB6F894DEBF0FBECDBF70
:1009300014BE0FB6F894A8958091600088618093EA
:100940006000109260000FBE14B817B81AB8579A1A
:10095000569A269A559A529A5A9A3B9A439882E006
:1009600084BD85BD8DE387BD80916E0082608093DC
:100970006E0084E48093BC008AE28093B8001092F9
:10098000B90088B1806388B902DFB8DC789461E08F
:1009900080E191E0C5DC88E0E3E0F1E0DE01119662
:1009A00001900D928A95E1F71FEF88E8882E83E188
:1009B000982EA12CB12C1C86F89480910C018B8769
:1009C00010920C0178948B8580FF41C080911001BA
:1009D0008F5F8093100180911001843014F0109289
:1009E0001001E0911001EE0FFF0B81E090E08C0F01
:1009F0009D1FE80FF91F80819181909318018093CA
:100A0000170180911701909118019093160180931E
:100A100015018C8586608C87CE010996CEDE8823F1
:100A200009F467C06FEF71E085E291E0A4D2892BF1
:100A300009F094C0E984FA84E114F10409F04CC08F
:100A400041E070E060E083E99FEF26DF4EC08B85D8
:100A500081FF0EC0809112018F5F809312018091FF
:100A60001201823010F0109212018C858160D3CF78
:100A70008B8582FF0CC0809111018F5F80931101E3
:100A800080911101823088F310921101EECF8B8595
:100A900083FF0CC0809113018F5F809313018091BD
:100AA0001301823010F310921301DFCF8B8584FF86
:100AB000B3CF809114018F5F809314018091140152
:100AC000823010F01092140180911401882369F291
:100AD0008C858C608C87C9CF6BEF71E0C7014BD2DE
:100AE000892B69F581E0809311018C8581608C8769
:100AF000ABDE809114018111BCC15A9A8C8582FFB2
:100B00000BC08C8583FDB7C180E1D6DD60911501F6
:100B10007091160180E1EEDD8C8581FF08C082E1D5
:100B2000CBDD609117017091180182E1E3DD8C85C6
:100B300080FF41CF61E080E191E0F2DB3CCF67EFE5
:100B400071E0C70118D2892B19F410921101CDCF91
:100B500041E06BED71E088E99FEF77CF65ED71E0E3
:100B600085E291E008D2892BA9F489859A850097BE
:100B700039F441E070E060E083E99FEF8DDEB8CFAB
:100B8000B7D1815041E065EB71E0823020F780936E
:100B90001201ABCF68EA71E085E291E0ECD1892BDC
:100BA00041F5E984FA84E114F10419F365EA71E08E
:100BB000C701E1D1892B31F063EA71E0C701DBD1D4
:100BC000892B21F481E0809313018FCF6FE971E0CD
:100BD000C701D1D1892B31F06DE971E0C701CBD1CB
:100BE000892B19F41092130180CF41E06EE771E078
:100BF000B2CF62E771E085E291E0BDD1892BA1F52A
:100C0000E984FA84E114F10409F4B3CF6FE671E0EA
:100C1000C701B1D1892B31F06DE671E0C701ABD1CD
:100C2000892B61F481E08093140180911401882361
:100C300009F45BCF8C858C608C8757CF69E671E0B7
:100C4000C70199D1892B31F067E671E0C70193D1D3
:100C5000892B19F410921401E8CF41E068E471E0A7
:100C600088E99FEF19DEE1CF6EE371E085E291E064
:100C700082D1892B91F589859A85009709F479CFDE
:100C800054D16B017C0199E8C91693E1D90630F083
:100C900041E06AE171E088E99FEFFEDD1093100109
:100CA000A701960144275527AFEFBFE00BD16D8711
:100CB0007E878F87988BA5019401E2D0309318012D
:100CC00020931701809117019091180190931601BC
:100CD000809315018C8586600ACF6CE071E085E217
:100CE00091E049D1892B51F589859A85009709F4BE
:100CF00040CF1BD16B017C0189E8C81683E1D8067F
:100D000030F041E068EE70E088E99FEFC5DD1093B8
:100D10001001A701960144275527AFEFBFE0D2D0BD
:100D20006D877E878F87988BA5019401A9D030931A
:100D30001801209317018C858260D9CE6AED70E08E
:100D400085E291E018D1892B51F589859A85009724
:100D500009F40FCFEAD06B017C0199E8C91693E141
:100D6000D90630F041E066EB70E088E99FEF94DD52
:100D700010931001A701960144275527AFEFBFE05C
:100D8000A1D06D877E878F87988BA501940178D03D
:100D900030931601209315018C858460A8CE62EBF8
:100DA00070E085E291E0E7D0892B41F5E984FA848F
:100DB000E114F10409F4DDCE6FEA70E0C701DBD085
:100DC000892B31F06BEA70E0C701D5D0892B11F483
:100DD00043988ECE66EA70E0C701CDD0892B31F002
:100DE00063EA70E0C701C7D0892B11F4439A80CE23
:100DF00041E060E870E088E99FEFC0CE6AE770E00C
:100E000085E291E0B8D0892B21F486E790E02BDDD4
:100E10006FCE61E770E085E291E0ADD0892B61F49F
:100E2000F89488E198E00FB6F894A8958093600054
:100E30000FBE90936000FFCF6BE670E085E291E01B
:100E40009AD0892B19F48EE390E0E1CF64E370E04F
:100E500085E291E090D0892B31F442E070E060E0CF
:100E600090E080E08BCE41E070E060E08FE89FEFA3
:100E700085CE5A9843CE80E11FDC8111FCCF44CE51
:100E8000A1E21A2EAA1BBB1BFD010DC0AA1FBB1F8E
:100E9000EE1FFF1FA217B307E407F50720F0A21B00
:100EA000B30BE40BF50B661F771F881F991F1A946D
:100EB00069F760957095809590959B01AC01BD0197
:100EC000CF01089509D0A59F900DB49F900DA49FC8
:100ED000800D911D11240895A29FB001B39FC00100
:100EE000A39F01D0B29F700D811D1124911D089503
:100EF000FC0188279927E89421912032E9F32930D1
:100F000010F02E30C8F32B3239F02D3231F46894C2
:100F100003C064D0820F911D219120532A30C8F361
:100F20001EF4909581959F4F08951F93FC0199277A
:100F30008827BC01E89411911032E9F3193010F0C0
:100F40001E30C8F31B3249F01D3241F4689405C0CD
:100F500030D0610F711D811D911D119110531A30F8
:100F6000B8F33EF490958095709561957F4F8F4FC3
:100F70009F4F1F910895FB01DC018D910590801911
:100F80000110D9F3990B0895FC018191861721F086
:100F90008823D9F7992708953197CF010895DC0167
:100FA0006C9161566A3108F0605E6F5B6D93C1F7BA
:100FB0000895592F482F372F262F660F771F881F28
:100FC000991F660F771F881F991F620F731F841F59
:100FD000951F660F771F881F991F08957AE0979FC6
:100FE000902D879F802D910D11240895F894FFCFA7
:0C0FF00000000000009909CC0CFF0F006D
:00000001FF
