:100000005BC175C174C173C172C171C170C16FC16F
:100010006EC16DC16CC16BC16AC169C1ECC167C100
:1000200066C165C193C363C162C161C160C15FC183
:100030005EC15DC1300A00310A003137494E44319A
:100040003000535953543A424F4F5400535953546C
:100050003A4552523F005A2D53696D756C61746F69
:1000600072204269617320536F7572636520563147
:100070002E312C20732E6E2E203230323030323121
:10008000340A002A49444E3F002A525354002B316F
:100090000A002A4F50433F00204F6E6C79204C4F8E
:1000A0002F4849206F72204C4F572F48494748200E
:1000B000737570706F727465642E0048490048490A
:1000C0004748004C4F57004C4F0046414E00204DD2
:1000D0006178696D756D20737570706F7274656489
:1000E000206C6576656C20697320353030306D5634
:1000F0002E00424941533A5057523A564F4C540001
:10010000204D6178696D756D20737570706F7274B4
:100110006564206C6576656C2069732035303030FD
:100120006D562E00424941533A504F543A564F4C67
:100130005400204D6178696D756D20737570706F16
:1001400072746564206C6576656C20697320353047
:1001500030306D562E00424941533A564F4C5400B0
:10016000204F6E6C79204F4E2F4F4646206F7220E5
:10017000312F3020737570706F727465642E00308B
:10018000004F46460031004F4E00504F5745523AFF
:10019000535441544500204F6E6C79204F4E2F4FE1
:1001A0004646206F7220312F3020737570706F7249
:1001B0007465642E0030004F46460031004F4E00FB
:1001C000434F4D4D4F4E3A535441544500204F6ECE
:1001D0006C792072616E676573203120616E6420D6
:1001E0003220737570706F727465642E0052414EC8
:1001F000474500204F6E6C7920494E44206F722095
:1002000043415020737570706F727465642E0043A3
:10021000415000494E44004D4F4445005556595AEF
:100220006566696A9596999AA5A6A9AA0A00302CCE
:10023000204E6F206572726F722E002D3235382C71
:1002400020454550524F4D20777269746520707279
:100250006F7465637465642E002D3130392C204D28
:10026000697373696E6720706172616D6574657220
:10027000732E002D3130342C2057726F6E67207032
:100280006172616D657465722074797065206F723A
:100290002076616C75652E002D3131332C20556E22
:1002A000646566696E656420636F6D6D616E642060
:1002B0006865616465722E0011241FBECFEFD4E023
:1002C000DEBFCDBF11E0A0E0B1E0E6EDF1E102C09C
:1002D00005900D92AC30B107D9F721E0ACE0B1E068
:1002E00001C01D92A83AB207E1F74FD372C788CE7A
:1002F00020912201962F909592236823692B6068A4
:100300006093220108952A988EBD0DB407FEFDCF9B
:100310002A9A0895229A259A239A80E58CBD8DB554
:1003200081608DBD2A9A80E0EECF8F70E82FF0E0DB
:10033000E45EFD4F8491E7CFFC018091220187FDAF
:10034000FCCF818190E0811101C092E08281238104
:1003500040E0211101C044E0248158E0259F900134
:100360001124842B822B892B8068809322016623A1
:1003700021F08091220187FDFCCF08958091140126
:10038000811120C08091220187FF0CC08091130150
:1003900087FD08C0809122018093130194E090931F
:1003A0001401C3CF8091130187FF0FC08091130107
:1003B0008F7780931301809122018F7780932201A0
:1003C00080E0A1CF81508093140108959C018FB7E4
:1003D000F89430930F0120930E018FBF08958FB7CB
:1003E000F89420910E0130910F018FBF81E0232BF3
:1003F00009F080E008951F920F920FB60F9211241A
:100400002F933F934F935F936F937F938F939F931C
:10041000AF93BF93EF93FF938091120181112EC090
:100420003A985398399854983898429A5B9A419AD6
:100430005C9A409A5D9A5F98809112018F5F893033
:1004400008F0A9C08093120199DF809110018F5F9D
:10045000823008F0B5C080931001FF91EF91BF91F9
:10046000AF919F918F917F916F915F914F913F914C
:100470002F910F900FBE0F901F901895813001F5AE
:1004800080910D01329B12C081604B9B11C0826034
:10049000319B10C084604C9B0FC08860309B0EC0A5
:1004A000806180930D015F9A5E98C6CF8E7FEDCFFD
:1004B0008D7FEECF8B7FEFCF877FF0CF8F7EF1CF19
:1004C000873009F03FC080910D01329B1FC08062D0
:1004D0004B9B1EC08064319B1DC0806880930D01C2
:1004E0005E9A3A9A539A399A549A389A5C984198F3
:1004F0005B9842988091190181110EC05C9A80919D
:100500001B0181111DC0409A2E9896CF8F7DE0CFA0
:100510008F7BE1CF8F77E2CF80911901813011F489
:10052000419AEDCF80911901823011F45B9AE7CFA7
:1005300080911901833011F4429AE1CF5C9AFCCF8B
:100540004098E2CF883009F077CF2E9A80911B0136
:1005500080FF17C0429A80911A01811114C05B9AE2
:1005600080911A0180FF11C0419A80911C0180FF87
:100570000EC05C9A80911D0180FF0BC0409A5D986F
:100580005BCF4298E8CF5B98EBCF4198EECF5C9879
:10059000F1CF4098F4CF1092120190910D0180910B
:1005A0000D0120910C013091110193278095892331
:1005B000822B80930C0180910D018093110144CF17
:1005C0001092100180910E0190910F01892B09F476
:1005D00044CF80910E0190910F01019790930F01EC
:1005E00080930E013ACF009749F0F0DE8091BC0075
:1005F00087FD03C0F4DE8823C9F3F1CE8091BC00EF
:1006000087FFFCCF80E00895CF92DF92EF92FF92B8
:100610000F931F93CF93DF93C82FC62EF72EE42E90
:10062000D22FD32E84EA8093BC00822F932FDBDF5E
:10063000882371F084E98093BC00C1E08C2FDF91A6
:10064000CF911F910F91FF90EF90DF90CF90089581
:100650008091B900887F883069F7CC0FC093BB00C8
:1006600084E88093BC008D2F9D2DBDDFC82F88238B
:1006700029F084E98093BC00C2E0E0CF8091B9000A
:10068000887F8831B1F70C2D1F2DE00EF12EF11C63
:1006900084E8C82EE016F10621F484E98093BC00BA
:1006A000CDCFF80181918F018093BB00C092BC0037
:1006B0008D2F9D2D98DF882329F084E98093BC003D
:1006C000C3E0BCCF8091B900887F883219F3F5CFA1
:1006D000CF93DF9300D00F92CDB7DEB7209100010A
:1006E000309101014091020129833A834B8390E6C6
:1006F000998328EB3BE043E0BE016F5F7F4F84DFCF
:100700000F900F900F90DF91CF910895CF93DF93CB
:1007100000D00F92CDB7DEB79B0190E39983AB0178
:1007200094E0569547959A95E1F74A832295207F64
:100730002B8328EB3BE043E0BE016F5F7F4F64DF1C
:100740000F900F900F90DF91CF9108951F921FB6D9
:100750001F9211248F939F93EF93FF938091C60074
:10076000E0912401F0912501819391E0E63AF907A7
:1007700010F0E6E2F1E010828A3011F08B3329F4B8
:10078000809123018F5F80932301F0932501E093F3
:100790002401FF91EF919F918F911F901FBE1F9099
:1007A000189582E08093C00088E98093C10086E0BC
:1007B0008093C2008CE090E09093C5008093C400C9
:1007C000E6E2F1E01082F0932501E0932401F0933A
:1007D000A701E093A6011092230108950F931F93A0
:1007E000CF93DF938C01AB01F8948091230178942F
:1007F00018160CF04EC0E8011882A091A601B09125
:10080000A701FB0111821082902F812F30E060E060
:100810002C912032B1F4E92FF82F1192EA01F983DB
:10082000E883CD0106C0A6E2B1E0D1E0863A9D079B
:10083000C0F7DC0101962C912032A9F39E2F8F2F57
:10084000E7CF2B3391F02A3081F02D3081F4E92F5E
:10085000F82F311102C0119231E0119621E0A63A31
:10086000B20760F3A6E2B1E0E9CF6F5FF0CF3323C8
:10087000B1F0B093A701A093A601F8948091230151
:10088000861B80932301789481E0F8019081911177
:1008900001C080E0DF91CF911F910F910895E92F62
:1008A000F82F2193DACF9091C00095FFFCCF809371
:1008B000C60008958091C00086FFFCCF0895CF93B5
:1008C000DF93EC01FE0184912196811107C0809194
:1008D000C00086FFFCCFDF91CF9108959091C000BA
:1008E00090649093C000DFDFEDCFCF93DF93EC01F6
:1008F0008991811103C0DF91CF910895D4DFCE019A
:10090000F6CF40FF08C080931701909318016093C1
:1009100015017093160141FF20C08091170190913D
:1009200018018F382FEF920719F1C0F4009751F199
:100930008E3F9E4F21F180911501909116010097F5
:1009400009F0BDDF8CE292E0BADF1092180110923C
:1009500017011092160110921501089583392FEF97
:10096000920751F088399F4F31F783E792E002C038
:1009700088E992E0A4DFDFCF89E592E0FBCF8BE34B
:1009800092E0F8CF8EE292E0F5CFCDB7DEB7C05956
:10099000D1090FB6F894DEBF0FBECDBF14BE0FB69F
:1009A000F894A8958091600088618093600010920F
:1009B00060000FBE14B817B81AB8579A569A269AFC
:1009C000559A529A5A9A3B9A439882E084BD85BDC3
:1009D0008DE387BD80916E00826080936E0084E419
:1009E0008093BC008AE28093B8001092B90088B16D
:1009F000806388B91092190110921A0110921B019C
:100A000010921C0110921D0110921F0110921E01E4
:100A10001092210110922001C4DE7CDC789461E008
:100A200089E191E089DC88E0E3E0F1E0DE01AF57A5
:100A3000BF4F01900D928A95E1F71FEF88E8882E4D
:100A400083E1982EA12CB12CC457DF4F1882CC58CB
:100A5000D040F89480910C01C557DF4F8883CB5864
:100A6000D04010920C017894C557DF4F8881CB5845
:100A7000D04080FF50C0809119018F5F8093190191
:100A800080911901843014F010921901E09119013C
:100A9000EE0FFF0B81E890E08C0F9D1FE80FF91F10
:100AA0008081918190932101809320018091200188
:100AB0009091210190931F0180931E01C457DF4F35
:100AC0008881CC58D0408660C457DF4F8883CC588B
:100AD000D040BE0167577F4FCE0101967FDE88234D
:100AE00009F490C067E172E0CE0101964CD3892BE6
:100AF00009F0CDC0C757DF4FE880F980C958D04012
:100B0000E114F10409F069C041E070E060E083E9BC
:100B10009FEFF7DE6CC0C557DF4F8881CB58D040C0
:100B200081FF12C080911B018F5F80931B01809118
:100B30001B01823010F010921B01C457DF4F8881D7
:100B4000CC58D0408160C0CFC557DF4F8881CB588B
:100B5000D04082FF0CC080911A018F5F80931A01F0
:100B600080911A01823048F310921A01E6CFC557DE
:100B7000DF4F8881CB58D04083FF0CC080911C018F
:100B80008F5F80931C0180911C018230B0F2109223
:100B90001C01D3CFC557DF4F8881CB58D04084FF8D
:100BA00098CF80911D018F5F80931D0180911D0161
:100BB000823010F010921D0180911D01882309F4EC
:100BC000BCCFC457DF4F8881CC58D0408C60C4570D
:100BD000DF4F8883CC58D040B0CF63E172E0C701CB
:100BE000D2D2892B09F044C081E080931A01C45706
:100BF000DF4F8881CC58D0408160C457DF4F888355
:100C0000CC58D04080911D0181113BC25A9AC457E3
:100C1000DF4F8881CC58D04082FF0FC0C457DF4FD0
:100C20008881CC58D04083FD2EC280E151DD609197
:100C30001E0170911F0180E169DDC457DF4F88817B
:100C4000CC58D04081FF08C082E142DD6091200194
:100C50007091210182E15ADDC457DF4F8881CC5861
:100C6000D04080FFF1CE61E089E191E065DBECCE20
:100C70006FE072E0C70187D2892B19F410921A0134
:100C8000B6CF41E063EF71E088E99FEF42CF6DEEB0
:100C900071E0CE01019677D2892BC9F4C757DF4F97
:100CA00088819981C958D040009739F441E070E0BB
:100CB00060E083E99FEF25DEA5CF22D2815041E09D
:100CC0006DEC71E0823000F780931B0190CF60ECF7
:100CD00071E0CE01019657D2892B61F5C757DF4FDE
:100CE000E880F980C958D040E114F104F9F26DEBC5
:100CF00071E0C70148D2892B31F06BEB71E0C7017D
:100D000042D2892B21F481E080931C0170CF67EBE4
:100D100071E0C70138D2892B31F065EB71E0C70172
:100D200032D2892B19F410921C0161CF41E066E99F
:100D300071E0AACF6AE871E0CE01019624D2892B36
:100D400009F040C0C757DF4FE880F980C958D0404C
:100D5000E114F10409F4AACF67E871E0C70113D2E6
:100D6000892B31F065E871E0C7010DD2892BA1F420
:100D700081E080931D0180911D01882309F437CF04
:100D8000C457DF4F8881CC58D0408C60C457DF4FA8
:100D90008883CC58D0402BCF61E871E0C701F3D1F4
:100DA000892B31F06FE771E0C701EDD1892B19F480
:100DB00010921D01E0CF41E060E671E088E99FEF0D
:100DC000A0DDD9CF66E571E0CE010196DCD1892B9B
:100DD000F1F5C757DF4F88819981C958D0400097F6
:100DE00009F464CFAAD16B017C0199E8C91693E19B
:100DF000D90630F041E062E371E088E99FEF81DDE0
:100E000010931901A701960144275527AFEFBFE0C2
:100E100061D1C357DF4F688379838A839B83CD5821
:100E2000D040A501940134D13093210120932001B9
:100E3000809120019091210190931F0180931E01C8
:100E4000C457DF4F8881CC58D0408660D6CE64E24C
:100E500071E0CE01019697D1892BB1F5C757DF4FCD
:100E600088819981C958D040009709F41FCF65D176
:100E70006B017C0189E8C81683E1D80630F041E0B7
:100E800060E071E088E99FEF3CDD10931901A70154
:100E9000960144275527AFEFBFE01CD1C357DF4F62
:100EA000688379838A839B83CD58D040A5019401C0
:100EB000EFD03093210120932001C457DF4F888168
:100EC000CC58D040826099CE62EF70E0CE0101969E
:100ED0005AD1892BB1F5C757DF4F88819981C958FD
:100EE000D040009709F4E2CE28D16B017C0199E84B
:100EF000C91693E1D90630F041E06EEC70E088E964
:100F00009FEFFFDC10931901A70196014427552795
:100F1000AFEFBFE0DFD0C357DF4F688379838A83A9
:100F20009B83CD58D040A5019401B2D030931F01CE
:100F300020931E01C457DF4F8881CC58D040846075
:100F40005CCE6AEC70E0CE0101961DD1892B61F573
:100F5000C757DF4FE880F980C958D040E114F10449
:100F600009F4A4CE67EC70E0C7010DD1892B31F0F4
:100F700063EC70E0C70107D1892B11F4439842CE8E
:100F80006EEB70E0C701FFD0892B31F06BEB70E0A6
:100F9000C701F9D0892B11F4439A34CE41E068E9B6
:100FA00070E088E99FEF87CE62E970E0CE0101969C
:100FB000EAD0892B21F48EE890E081DC23CE69E829
:100FC00070E0CE010196DFD0892B11F4F894DDCCCE
:100FD00063E870E0CE010196D6D0892B19F486E53E
:100FE00090E0EBCF6CE470E0CE010196CCD0892B81
:100FF00031F442E070E060E090E080E05CCE62E4DA
:1010000070E0CE010196BFD0892BA9F5C757DF4FFD
:1010100088819981C958D040009751F16AE370E006
:10102000B2D0892B29F587E390E049DC89E0E2E042
:10103000F0E080935700E4912E2F92E0E2FF90E0E1
:1010400081E021FF80E0890F23E030E0281B310997
:1010500080E091E0A0E0B0E004C0880F991FAA1FD3
:10106000BB1F2A95D2F7E0E0F0E2E81BF90B0994E8
:1010700084E390E0A2CF41E070E060E08FE89FEF72
:101080001ACE5A98C4CD80E123DB8111FCCFCDCD9F
:10109000A1E21A2EAA1BBB1BFD010DC0AA1FBB1F7C
:1010A000EE1FFF1FA217B307E407F50720F0A21BEE
:1010B000B30BE40BF50B661F771F881F991F1A945B
:1010C00069F760957095809590959B01AC01BD0185
:1010D000CF01089509D0A59F900DB49F900DA49FB6
:1010E000800D911D11240895A29FB001B39FC001EE
:1010F000A39F01D0B29F700D811D1124911D0895F1
:10110000FC0188279927E89421912032E9F32930BE
:1011100010F02E30C8F32B3239F02D3231F46894B0
:1011200003C04FD0820F911D219120532A30C8F364
:101130001EF4909581959F4F08951F93FC01992768
:101140008827BC01E89411911032E9F3193010F0AE
:101150001E30C8F31B3249F01D3241F4689405C0BB
:101160001BD0610F711D811D911D119110531A30FB
:10117000B8F33EF490958095709561957F4F8F4FB1
:101180009F4F1F910895FB01DC018D9105908019FF
:101190000110D9F3990B0895592F482F372F262F77
:1011A000660F771F881F991F660F771F881F991F6B
:1011B000620F731F841F951F660F771F881F991F6B
:1011C00008957AE0979F902D879F802D910D11248F
:0611D0000895F894FFCF22
:0C11D60000000000009909CC0CFF0F0085
:00000001FF
